{
  "contractName": "SendMessage",
  "abi": [
    {
      "inputs": [
        {
          "internalType": "address",
          "name": "gateway_",
          "type": "address"
        },
        {
          "internalType": "address",
          "name": "gasReceiver_",
          "type": "address"
        }
      ],
      "stateMutability": "nonpayable",
      "type": "constructor"
    },
    {
      "inputs": [],
      "name": "InvalidAddress",
      "type": "error"
    },
    {
      "inputs": [],
      "name": "NotApprovedByGateway",
      "type": "error"
    },
    {
      "inputs": [
        {
          "internalType": "bytes32",
          "name": "commandId",
          "type": "bytes32"
        },
        {
          "internalType": "string",
          "name": "sourceChain",
          "type": "string"
        },
        {
          "internalType": "string",
          "name": "sourceAddress",
          "type": "string"
        },
        {
          "internalType": "bytes",
          "name": "payload",
          "type": "bytes"
        }
      ],
      "name": "execute",
      "outputs": [],
      "stateMutability": "nonpayable",
      "type": "function"
    },
    {
      "inputs": [
        {
          "internalType": "bytes32",
          "name": "commandId",
          "type": "bytes32"
        },
        {
          "internalType": "string",
          "name": "sourceChain",
          "type": "string"
        },
        {
          "internalType": "string",
          "name": "sourceAddress",
          "type": "string"
        },
        {
          "internalType": "bytes",
          "name": "payload",
          "type": "bytes"
        },
        {
          "internalType": "string",
          "name": "tokenSymbol",
          "type": "string"
        },
        {
          "internalType": "uint256",
          "name": "amount",
          "type": "uint256"
        }
      ],
      "name": "executeWithToken",
      "outputs": [],
      "stateMutability": "nonpayable",
      "type": "function"
    },
    {
      "inputs": [],
      "name": "gasService",
      "outputs": [
        {
          "internalType": "contract IAxelarGasService",
          "name": "",
          "type": "address"
        }
      ],
      "stateMutability": "view",
      "type": "function",
      "constant": true
    },
    {
      "inputs": [],
      "name": "gateway",
      "outputs": [
        {
          "internalType": "contract IAxelarGateway",
          "name": "",
          "type": "address"
        }
      ],
      "stateMutability": "view",
      "type": "function",
      "constant": true
    },
    {
      "inputs": [],
      "name": "message",
      "outputs": [
        {
          "internalType": "string",
          "name": "",
          "type": "string"
        }
      ],
      "stateMutability": "view",
      "type": "function",
      "constant": true
    },
    {
      "inputs": [],
      "name": "sourceAddress",
      "outputs": [
        {
          "internalType": "string",
          "name": "",
          "type": "string"
        }
      ],
      "stateMutability": "view",
      "type": "function",
      "constant": true
    },
    {
      "inputs": [],
      "name": "sourceChain",
      "outputs": [
        {
          "internalType": "string",
          "name": "",
          "type": "string"
        }
      ],
      "stateMutability": "view",
      "type": "function",
      "constant": true
    },
    {
      "inputs": [
        {
          "internalType": "string",
          "name": "destinationChain",
          "type": "string"
        },
        {
          "internalType": "string",
          "name": "destinationAddress",
          "type": "string"
        },
        {
          "internalType": "string",
          "name": "value_",
          "type": "string"
        }
      ],
      "name": "sendMessage",
      "outputs": [],
      "stateMutability": "payable",
      "type": "function",
      "payable": true
    }
  ],
  "bytecode": "0x60c06040523480156200001157600080fd5b506040516200161e3803806200161e83398181016040528101906200003791906200017b565b81600073ffffffffffffffffffffffffffffffffffffffff168173ffffffffffffffffffffffffffffffffffffffff161415620000a0576040517fe6c4247b00000000000000000000000000000000000000000000000000000000815260040160405180910390fd5b8073ffffffffffffffffffffffffffffffffffffffff1660808173ffffffffffffffffffffffffffffffffffffffff1681525050508073ffffffffffffffffffffffffffffffffffffffff1660a08173ffffffffffffffffffffffffffffffffffffffff16815250505050620001c2565b600080fd5b600073ffffffffffffffffffffffffffffffffffffffff82169050919050565b6000620001438262000116565b9050919050565b620001558162000136565b81146200016157600080fd5b50565b60008151905062000175816200014a565b92915050565b6000806040838503121562000195576200019462000111565b5b6000620001a58582860162000164565b9250506020620001b88582860162000164565b9150509250929050565b60805160a05161141a620002046000396000818161023001526106600152600081816102c801528181610364015281816103a4015261055d015261141a6000f3fe60806040526004361061007b5760003560e01c8063491606581161004e578063491606581461011b5780636a22d8cc14610144578063b0fa84441461016f578063e21f37ce1461019a5761007b565b80630eabeffe14610080578063116191b61461009c5780631a98b2e0146100c75780631c6ffa46146100f0575b600080fd5b61009a6004803603810190610095919061099c565b6101c5565b005b3480156100a857600080fd5b506100b1610362565b6040516100be9190610acf565b60405180910390f35b3480156100d357600080fd5b506100ee60048036038101906100e99190610bac565b610386565b005b3480156100fc57600080fd5b506101056104b1565b6040516101129190610d55565b60405180910390f35b34801561012757600080fd5b50610142600480360381019061013d9190610d77565b61053f565b005b34801561015057600080fd5b5061015961065e565b6040516101669190610e61565b60405180910390f35b34801561017b57600080fd5b50610184610682565b6040516101919190610d55565b60405180910390f35b3480156101a657600080fd5b506101af610710565b6040516101bc9190610d55565b60405180910390f35b60003411610208576040517f08c379a00000000000000000000000000000000000000000000000000000000081526004016101ff90610ec8565b60405180910390fd5b6000828260405160200161021d929190610f24565b60405160208183030381529060405290507f000000000000000000000000000000000000000000000000000000000000000073ffffffffffffffffffffffffffffffffffffffff16630c93e3bb34308a8a8a8a88336040518963ffffffff1660e01b81526004016102949796959493929190610fbe565b6000604051808303818588803b1580156102ad57600080fd5b505af11580156102c1573d6000803e3d6000fd5b50505050507f000000000000000000000000000000000000000000000000000000000000000073ffffffffffffffffffffffffffffffffffffffff16631c92115f88888888866040518663ffffffff1660e01b815260040161032795949392919061102a565b600060405180830381600087803b15801561034157600080fd5b505af1158015610355573d6000803e3d6000fd5b5050505050505050505050565b7f000000000000000000000000000000000000000000000000000000000000000081565b600085856040516103989291906110aa565b604051809103902090507f000000000000000000000000000000000000000000000000000000000000000073ffffffffffffffffffffffffffffffffffffffff16631876eed98c8c8c8c8c878b8b8b6040518a63ffffffff1660e01b815260040161040b999897969594939291906110e1565b602060405180830381600087803b15801561042557600080fd5b505af1158015610439573d6000803e3d6000fd5b505050506040513d601f19601f8201168201806040525081019061045d9190611195565b610493576040517f500c44b400000000000000000000000000000000000000000000000000000000815260040160405180910390fd5b6104a48a8a8a8a8a8a8a8a8a61079e565b5050505050505050505050565b600180546104be906111f1565b80601f01602080910402602001604051908101604052809291908181526020018280546104ea906111f1565b80156105375780601f1061050c57610100808354040283529160200191610537565b820191906000526020600020905b81548152906001019060200180831161051a57829003601f168201915b505050505081565b600082826040516105519291906110aa565b604051809103902090507f000000000000000000000000000000000000000000000000000000000000000073ffffffffffffffffffffffffffffffffffffffff16635f6970c38989898989876040518763ffffffff1660e01b81526004016105be96959493929190611223565b602060405180830381600087803b1580156105d857600080fd5b505af11580156105ec573d6000803e3d6000fd5b505050506040513d601f19601f820116820180604052508101906106109190611195565b610646576040517f500c44b400000000000000000000000000000000000000000000000000000000815260040160405180910390fd5b6106548787878787876107a9565b5050505050505050565b7f000000000000000000000000000000000000000000000000000000000000000081565b6002805461068f906111f1565b80601f01602080910402602001604051908101604052809291908181526020018280546106bb906111f1565b80156107085780601f106106dd57610100808354040283529160200191610708565b820191906000526020600020905b8154815290600101906020018083116106eb57829003601f168201915b505050505081565b6000805461071d906111f1565b80601f0160208091040260200160405190810160405280929190818152602001828054610749906111f1565b80156107965780601f1061076b57610100808354040283529160200191610796565b820191906000526020600020905b81548152906001019060200180831161077957829003601f168201915b505050505081565b505050505050505050565b81818101906107b8919061139b565b600090805190602001906107cd9291906107fa565b508585600191906107df929190610880565b508383600291906107f1929190610880565b50505050505050565b828054610806906111f1565b90600052602060002090601f016020900481019282610828576000855561086f565b82601f1061084157805160ff191683800117855561086f565b8280016001018555821561086f579182015b8281111561086e578251825591602001919060010190610853565b5b50905061087c9190610906565b5090565b82805461088c906111f1565b90600052602060002090601f0160209004810192826108ae57600085556108f5565b82601f106108c757803560ff19168380011785556108f5565b828001600101855582156108f5579182015b828111156108f45782358255916020019190600101906108d9565b5b5090506109029190610906565b5090565b5b8082111561091f576000816000905550600101610907565b5090565b6000604051905090565b600080fd5b600080fd5b600080fd5b600080fd5b600080fd5b60008083601f84011261095c5761095b610937565b5b8235905067ffffffffffffffff8111156109795761097861093c565b5b60208301915083600182028301111561099557610994610941565b5b9250929050565b600080600080600080606087890312156109b9576109b861092d565b5b600087013567ffffffffffffffff8111156109d7576109d6610932565b5b6109e389828a01610946565b9650965050602087013567ffffffffffffffff811115610a0657610a05610932565b5b610a1289828a01610946565b9450945050604087013567ffffffffffffffff811115610a3557610a34610932565b5b610a4189828a01610946565b92509250509295509295509295565b600073ffffffffffffffffffffffffffffffffffffffff82169050919050565b6000819050919050565b6000610a95610a90610a8b84610a50565b610a70565b610a50565b9050919050565b6000610aa782610a7a565b9050919050565b6000610ab982610a9c565b9050919050565b610ac981610aae565b82525050565b6000602082019050610ae46000830184610ac0565b92915050565b6000819050919050565b610afd81610aea565b8114610b0857600080fd5b50565b600081359050610b1a81610af4565b92915050565b60008083601f840112610b3657610b35610937565b5b8235905067ffffffffffffffff811115610b5357610b5261093c565b5b602083019150836001820283011115610b6f57610b6e610941565b5b9250929050565b6000819050919050565b610b8981610b76565b8114610b9457600080fd5b50565b600081359050610ba681610b80565b92915050565b60008060008060008060008060008060c08b8d031215610bcf57610bce61092d565b5b6000610bdd8d828e01610b0b565b9a505060208b013567ffffffffffffffff811115610bfe57610bfd610932565b5b610c0a8d828e01610946565b995099505060408b013567ffffffffffffffff811115610c2d57610c2c610932565b5b610c398d828e01610946565b975097505060608b013567ffffffffffffffff811115610c5c57610c5b610932565b5b610c688d828e01610b20565b955095505060808b013567ffffffffffffffff811115610c8b57610c8a610932565b5b610c978d828e01610946565b935093505060a0610caa8d828e01610b97565b9150509295989b9194979a5092959850565b600081519050919050565b600082825260208201905092915050565b60005b83811015610cf6578082015181840152602081019050610cdb565b83811115610d05576000848401525b50505050565b6000601f19601f8301169050919050565b6000610d2782610cbc565b610d318185610cc7565b9350610d41818560208601610cd8565b610d4a81610d0b565b840191505092915050565b60006020820190508181036000830152610d6f8184610d1c565b905092915050565b60008060008060008060006080888a031215610d9657610d9561092d565b5b6000610da48a828b01610b0b565b975050602088013567ffffffffffffffff811115610dc557610dc4610932565b5b610dd18a828b01610946565b9650965050604088013567ffffffffffffffff811115610df457610df3610932565b5b610e008a828b01610946565b9450945050606088013567ffffffffffffffff811115610e2357610e22610932565b5b610e2f8a828b01610b20565b925092505092959891949750929550565b6000610e4b82610a9c565b9050919050565b610e5b81610e40565b82525050565b6000602082019050610e766000830184610e52565b92915050565b7f476173207061796d656e74206973207265717569726564000000000000000000600082015250565b6000610eb2601783610cc7565b9150610ebd82610e7c565b602082019050919050565b60006020820190508181036000830152610ee181610ea5565b9050919050565b82818337600083830152505050565b6000610f038385610cc7565b9350610f10838584610ee8565b610f1983610d0b565b840190509392505050565b60006020820190508181036000830152610f3f818486610ef7565b90509392505050565b6000610f5382610a50565b9050919050565b610f6381610f48565b82525050565b600081519050919050565b600082825260208201905092915050565b6000610f9082610f69565b610f9a8185610f74565b9350610faa818560208601610cd8565b610fb381610d0b565b840191505092915050565b600060a082019050610fd3600083018a610f5a565b8181036020830152610fe681888a610ef7565b90508181036040830152610ffb818688610ef7565b9050818103606083015261100f8185610f85565b905061101e6080830184610f5a565b98975050505050505050565b60006060820190508181036000830152611045818789610ef7565b9050818103602083015261105a818587610ef7565b9050818103604083015261106e8184610f85565b90509695505050505050565b600081905092915050565b6000611091838561107a565b935061109e838584610ee8565b82840190509392505050565b60006110b7828486611085565b91508190509392505050565b6110cc81610aea565b82525050565b6110db81610b76565b82525050565b600060c0820190506110f6600083018c6110c3565b8181036020830152611109818a8c610ef7565b9050818103604083015261111e81888a610ef7565b905061112d60608301876110c3565b8181036080830152611140818587610ef7565b905061114f60a08301846110d2565b9a9950505050505050505050565b60008115159050919050565b6111728161115d565b811461117d57600080fd5b50565b60008151905061118f81611169565b92915050565b6000602082840312156111ab576111aa61092d565b5b60006111b984828501611180565b91505092915050565b7f4e487b7100000000000000000000000000000000000000000000000000000000600052602260045260246000fd5b6000600282049050600182168061120957607f821691505b6020821081141561121d5761121c6111c2565b5b50919050565b600060808201905061123860008301896110c3565b818103602083015261124b818789610ef7565b90508181036040830152611260818587610ef7565b905061126f60608301846110c3565b979650505050505050565b600080fd5b7f4e487b7100000000000000000000000000000000000000000000000000000000600052604160045260246000fd5b6112b782610d0b565b810181811067ffffffffffffffff821117156112d6576112d561127f565b5b80604052505050565b60006112e9610923565b90506112f582826112ae565b919050565b600067ffffffffffffffff8211156113155761131461127f565b5b61131e82610d0b565b9050602081019050919050565b600061133e611339846112fa565b6112df565b90508281526020810184848401111561135a5761135961127a565b5b611365848285610ee8565b509392505050565b600082601f83011261138257611381610937565b5b813561139284826020860161132b565b91505092915050565b6000602082840312156113b1576113b061092d565b5b600082013567ffffffffffffffff8111156113cf576113ce610932565b5b6113db8482850161136d565b9150509291505056fea26469706673582212200167964f389eeb30e15439d56e905166776591587f821c499af15ba5b833f49864736f6c63430008090033",
  "immutableReferences": {
    "10": [
      {
        "length": 32,
        "start": 712
      },
      {
        "length": 32,
        "start": 868
      },
      {
        "length": 32,
        "start": 932
      },
      {
        "length": 32,
        "start": 1373
      }
    ],
    "966": [
      {
        "length": 32,
        "start": 560
      },
      {
        "length": 32,
        "start": 1632
      }
    ]
  },
  "source": "// SPDX-License-Identifier: MIT\n// SPDX license identifier specifies which open-source license is being used for the contract\npragma solidity 0.8.9;\n\n// Importing external contracts for dependencies\nimport {AxelarExecutable} from \"@axelar-network/axelar-gmp-sdk-solidity/contracts/executable/AxelarExecutable.sol\";\nimport {IAxelarGateway} from \"@axelar-network/axelar-gmp-sdk-solidity/contracts/interfaces/IAxelarGateway.sol\";\nimport {IAxelarGasService} from \"@axelar-network/axelar-gmp-sdk-solidity/contracts/interfaces/IAxelarGasService.sol\";\nimport {IERC20} from \"@axelar-network/axelar-gmp-sdk-solidity/contracts/interfaces/IERC20.sol\";\n\n// Contract definition and name\ncontract SendMessage is AxelarExecutable {\n    // Three state variables that can be accessed by any function in the contract\n    string public message;\n    string public sourceChain;\n    string public sourceAddress;\n\n    // State variable that can only be set during contract deployment and is immutable after that\n    IAxelarGasService public immutable gasService;\n\n    // Contract constructor function gets called when the contract is first deployed\n    constructor(\n        address gateway_,\n        address gasReceiver_\n    ) AxelarExecutable(gateway_) {\n        // Sets the immutable state variable to the address of gasReceiver_\n        gasService = IAxelarGasService(gasReceiver_);\n    }\n\n    // Call this function to update the value of this contract along with all its siblings'.\n    function sendMessage(\n        string calldata destinationChain,\n        string calldata destinationAddress,\n        string calldata value_\n    ) external payable {\n        require(msg.value > 0, \"Gas payment is required\");\n\n        // Encodes the new value string into bytes, which can be sent to the Axelar gateway contract\n        bytes memory payload = abi.encode(value_);\n\n        gasService.payNativeGasForContractCall{value: msg.value}(\n            address(this),\n            destinationChain,\n            destinationAddress,\n            payload,\n            msg.sender\n        );\n        // Calls the Axelar gateway contract with the specified destination chain and address, and sends the payload along with the call\n        gateway.callContract(destinationChain, destinationAddress, payload);\n    }\n\n    // Handles calls created by setAndSend. Updates this contract's value\n    function _execute(\n        string calldata sourceChain_,\n        string calldata sourceAddress_,\n        bytes calldata payload_\n    ) internal override {\n        // Decodes the payload bytes into the string message and sets the state variable for this contract\n        (message) = abi.decode(payload_, (string));\n        // Sets the sourceChain and sourceAddress state variables with the provided arguments\n        sourceChain = sourceChain_;\n        sourceAddress = sourceAddress_;\n    }\n}\n",
  "sourcePath": "/Users/mac/Desktop/GIT/axelar/axelar-demo/Linea-interchain-workshop-with-Axelar/truffle/contracts/SendMessage.sol",
  "compiler": {
    "name": "solc",
    "version": "0.8.9+commit.e5eed63a.Emscripten.clang"
  },
  "schemaVersion": "3.4.15",
  "updatedAt": "2023-08-10T14:52:40.403Z",
  "networkType": "ethereum",
  "devdoc": {
    "kind": "dev",
    "methods": {},
    "version": 1
  },
  "userdoc": {
    "kind": "user",
    "methods": {},
    "version": 1
  }
}